:100000008813002001E60000020000000300000049
:1000100004000000050000000600000007000000CA
:1000200008000000090000000A0000000B000000AA
:100030000C0000000D0000000E00000035E800007C
:10004000100000001100000012000000130000006A
:10005000140000001500000016000000170000004A
:1000600018000000190000001A0000001B0000002A
:100070001C0000001D0000001E0000001F0000000A
:1000800020000000210000002200000023000000EA
:1000900024000000250000002600000027000000CA
:1000A00028000000290000002A0000002B000000AA
:1000B0002C0000002D0000002E0000002F0000008A
:1000C0000348854600F044FB0048004749D1000042
:1000D0008813002013480047FEE7FEE7FEE7FEE72F
:1000E000FEE7FEE7FEE7FEE7FEE7FEE7FEE7FEE7E8
:1000F000FEE7FEE7FEE7FEE7FEE7FEE7FEE7FEE7D8
:10010000FEE7FEE7FEE7FEE7FEE7FEE7FEE7FEE7C7
:10011000FEE7FEE7FEE7FEE7FEE7FEE7FEE7FEE7B7
:10012000FEE70000C100000030B50B46014600208C
:100130002022012409E00D46D5409D4205D31D46ED
:100140009540491B2546954040191546521E002DE5
:10015000F1DC30BD0549064A08685043054A80185D
:10016000086040087047014908607047800400201B
:100170006D4EC6413930000003460B439B0703D048
:1001800009E008C9121F08C0042AFAD203E00B785C
:100190000370401C491C521EF9D27047D2B201E0D4
:1001A0000270401C491EFBD270470022F6E710B5D2
:1001B00013460A4604461946FFF7F0FF204610BDD5
:1001C000421C0178401C0029FBD1801A7047032192
:1001D000001D401E037812021A43491EF9D510462D
:1001E00070470000F0B507460846584087B0C00F7A
:1001F000049048000E46590040084908BC1A88413E
:1002000005D2384631461E4617460B460246580070
:10021000400810434CD0300D039040055900400D6C
:10022000490D0590401A0290402872DA1803012106
:10023000000B09050843019004980092002805D09E
:100240000199524200208841009201900298402179
:100250000A1A0199009800F0C7F905460C466B464A
:1002600007CB00F0E2F9C0197141039A0E0D00238B
:10027000D71756401A467A40164344D0049A002AAB
:100280002DD0029A012A039A15DC1205C01A914159
:1002900001263605001C7141D20F059ED20700933E
:1002A000019202962A46234600F0DFF907B0F0BD1E
:1002B00038463146FAE71605224A0F46B218C01AE8
:1002C000B74101210905001C4F4100187F4111462B
:1002D00018187941E20F10436D19644113E0E207E9
:1002E0006D0815436408C2071443039A01261205DA
:1002F000C01A91413605001C7141CE0740083043B9
:100300004908C01851412A46234600F0A1F9CDE71B
:10031000FFE7049801224000C117121A00238B4105
:1003200004983146C417381AA141EEE730B40124CD
:10033000E407634030BC55E730B40124E407614072
:1003400030BC4FE70000E0FFF0B51FB488B00B9958
:100350000998002448400999C00F490049080991AB
:10036000C0070B990090490049080B91099908981A
:10037000A64608431CD00B990A98084318D0099840
:1003800001244000420D4800410D09982405000356
:10039000000B204309900B980003000B20430B90A7
:1003A00050181C494018002201901446104605E0E0
:1003B000002001460DB0F0BD032801DA034600E03D
:1003C00003239C46C11A0AAE0AE05F0008ADED5B4C
:1003D0004F00F75B7D430027AA187C41491C5B1E38
:1003E0006145F2DD410004AB5A522104120C0A436C
:1003F000240C401C0828DFDB01980290009970460D
:1004000001910090059B049A0799069800F02DF938
:10041000D0E700000DFCFFFFF0B50C465C4085B056
:10042000E40FE40703944C00002664085900944646
:10043000490802460296224321D062460A431ED052
:100440006200570D4A000E032303550D0124024696
:100450002C492405781B1B0B360B401823432643DD
:10046000614600901C46501AB44103D30098401CCA
:10047000009002E0921800985B41002803DA002007
:10048000014605B0F0BD002001210905074686465A
:1004900011E064461D46141BB54106D36546521B48
:1004A000B341744607430C43A646CD0740084908AC
:1004B000284392185B4105460D43EAD11046184384
:1004C00013D06046194650407140084306D060463C
:1004D000101AB34106D20122002306E000220123B4
:1004E000DB0702E00122D243531000987446010555
:1004F000381C6141029C039D0019694100F0A8F875
:10050000BFE70000FD0300000EB505490291002180
:1005100000910A460B46019100F0A7F803B000BD18
:10052000330400004A0009030123090B1B0519438A
:10053000094B10B5520D9A4201DA002010BD064B4E
:1005400034339A4203DC9A1A00F05EF810BD034976
:100550005118884010BD0000FF030000CDFBFFFFD5
:1005600010B5002904DB0124E40740428C412146F8
:10057000002B04DB1C460123DB075242A3419942B6
:1005800000D1904210BD0000F0B51FB40646002017
:1005900082B005464024019100901BE0019922465B
:1005A0000F46304600F030F8049A059B801A9941B6
:1005B00010D310461946224600F016F8361A8F411D
:1005C0000197224601200021009F00F00DF8381805
:1005D0004D4100902046641E0028DFDC019B0098FE
:1005E0002946324607B0F0BD10B5202A04DB01468B
:1005F000203A9140002010BD914020239C1A0346D0
:10060000E3401943904010BD10B5202A04DB084692
:10061000203AD040002110BD0B46D340D0402024CA
:10062000A21A91400843194610BD10B5202A06DBD6
:10063000CB170846203A1041C1170B4306E00B4682
:100640001341D0402024A21A91400843194610BDFE
:1006500010B5002B08DA0024401C614192185B4160
:100660001A4301D14008400010BDF0B51FB482B05C
:1006700005460C0003D008460CF04AF802E00CF0E6
:1006800047F820300246009021462846FFF7ACFF8D
:10069000049B059A04460F4618431143084314D09F
:1006A000184610431BD0009840210A1A1846059995
:1006B000FFF7AAFF05460E46009A05990498FFF732
:1006C00093FF084305D0012004E02046394607B0D7
:1006D000F0BD0020C11705430E432C43374300995A
:1006E0000E986305401A7905E40A00220C43FD0ABE
:1006F0000A3002D500200146E9E7010510196941D9
:100700000C9C0D9D00196941FFF7A2FFDFE7000077
:100710004A0009030123090B1B0519430A4B10B5B5
:10072000520D9A4202DA0020014610BD064B3433C6
:100730009A4203DC9A1AFFF767FF10BD034BD218E9
:10074000FFF752FF10BD0000FF030000CDFBFFFFCD
:10075000064C0125064E05E0E36807CC2B430C3C14
:1007600098471034B442F7D3FFF7AEFCB4E1000071
:10077000E4E1000030B58C180278401C13071B0F11
:1007800001D10378401C120906D10278401C03E015
:1007900005780D70401C491C5B1EF9D101E00B70FF
:1007A000491C521EFBD1A142E6D3002030BD0000FF
:1007B00003B40148019001BD0100002003B40148C9
:1007C000019001BD1502002003B40148019001BD54
:1007D0005D00002003B40148019001BD31020020FA
:1007E000034800680121C906884301490860704731
:1007F00000A00B4070B504460025012080078068EA
:1008000001214906084349018860FFF7E9FF0BF021
:1008100031FF054603218902284688430546207892
:1008200080020543012080070560804805682D0C83
:100830002D046088054389012846884305462079B0
:100840000004054301218904284688430546607950
:10085000800405430721C904284688430546207AB9
:10086000C004054301218905284688430546A0792F
:10087000800505434900284688430546E079C005C0
:10088000054307210906284688430546607A000685
:10089000054301210907284688430546A07A000739
:1008A00005434900284688430546207C4007054308
:1008B0005E4805605D488030056B2D0B2D03A589D2
:1008C0000563A07B012808D15848C030006B49134C
:1008D00008435649C031086308E05448C030006BF3
:1008E0000121090488435149C0310863E07B012894
:1008F00009D14E48C030406B0121090408434B49DF
:10090000C031486308E04948C030406B0121090408
:1009100088434649C03148630020C0434349C8600A
:10092000084685682D0C2D04A07CC007C00F618A85
:1009300002221140490849000843618A04221140FB
:10094000890889000843618A08221140C908C90042
:100950000843618A10221140090909010843618A8C
:1009600020221140490949010843618A402211406F
:10097000890989010843618A80221140C909C90196
:100980000843618A52001140090A09020843618A3A
:1009900052001140490A49020843618A520011403D
:1009A000890A89020843618A52001140C90AC902B2
:1009B0000843618A52001140090B09030843618A08
:1009C00052001140490B49030843618A520011400B
:1009D000890B89030843618A52001140C90BC9037E
:1009E000084305435100284688430546607D0004BE
:1009F00005434900284688430546207D40040543B9
:100A00000A4885608068002806D0042001218140C2
:100A1000074A116000BF07E0042001218140044A19
:100A20008032116000BF00BF70BD000000A00B400D
:100A300000E100E070B5044620460CF0F8FA0546E7
:100A40000248E9004058C007C00F70BD10A00B401D
:100A5000034800680121C90608430149086070473E
:100A600000A00B4070B50546002628460CF0DFFAC2
:100A700004460648E100401840680605360D01208E
:100A8000A04002491039C860304670BD10A00B402C
:100A90000648406804218843044948600846406885
:100AA00004210843014948607047000000A00B4042
:100AB000034840680121084301494860704700002D
:100AC00000A00B40114B02689A6042689A608268ED
:100AD0009A60C2689A6000BF0C4A5268D207D20F6F
:100AE000002AF9D0094AD2680A60084AD2684A60E6
:100AF000064AD2688A60054AD268CA60034A126808
:100B000080231A43014B1A607047000000D00B404D
:100B100010B504461C4800228276C27602728030EC
:100B200001468273183119480B460160084620308F
:100B30004272096108334B61CA770274C273144868
:100B4000027014480078052802D1002006F0B6FE95
:100B5000114901200870201DFFF739FB0F4908607B
:100B600006210F480BF018FAFFF7F4FA0D4C20603D
:100B7000FFF7F0FA6060FFF7EDFAA060FFF7EAFA1E
:100B8000E06000F055FA10BD940A0020D003002068
:100B9000C9030020D803002066030020880300203A
:100BA00000080640840A002010B5001DFFF70FFB67
:100BB0000C4908600C490420087006210B480BF012
:100BC000EBF9FFF7C7FA0A4C2060FFF7C3FA606041
:100BD000FFF7C0FAA060FFF7BDFAE06000F028FA66
:100BE00010BD0000880300208C0300200008064090
:100BF000840A002010B51D481D4B0188CA1A99426D
:100C00002BD013DC1B4BCA1A994220D007DC1A4A9E
:100C1000891816D0072901D100F064F910BD022A05
:100C200018D0042AFAD100F0E7F810BD022A17D034
:100C3000062A18D0082A07D0B62AF6D1FFF7B8FD41
:100C400010BDFFF7B1FF10BDFFF762FF10BD00F050
:100C500089F910BD00F056F810BD00F01BF910BD69
:100C600000F02CF910BD00F009F810BD840500203B
:100C7000270500001D050000ECFAFFFF7CB50446C7
:100C8000184904200870184A69460A8048801748A5
:100C9000174D0078241D012806D122461549164813
:100CA00000F086FC002809D022461249134800F0C3
:100CB0007FFC002802D02978491C29702978032953
:100CC00003D303202870012003E0002801D1002174
:100CD00029700B49087069460871082168460BF0B5
:100CE000C7F87CBD8C0300202E05000024040020E2
:100CF00085030020840A0020FC0C002038D300006B
:100D000084030020F8B504463848007801286CD1E7
:100D1000201DFFF75CFA0A21FFF706FA344D07465B
:100D20002E683060201DFFF752FA0A21FFF7FCF908
:100D3000B06000203071384600F030FB0146286872
:100D40002E22115400F0B0FA607A227A010229486A
:100D50001143814202D02A6820321170E17AA27ACE
:100D600009021143814202D02A6820325170617B0E
:100D7000227B09021143814202D02A6820329170FD
:100D8000E17BA27B09021143814202D02A68203212
:100D9000D170617C227C09021143814202D02A6811
:100DA00020321171E17CA27C09021143814202D000
:100DB000286820304171607D217D000600140843C1
:100DC000B121C901401881B23B200AF099F80120F5
:100DD00000F072FE002029225201694600900A802C
:100DE0004880042168460BF043F8F8BD66030020F4
:100DF000D0030020FFFF0000F8B50446214800782A
:100E000001283ED1201DFFF7E2F90A21FFF78CF9F6
:100E10001D4D07462E683060201DFFF7D8F90A21C6
:100E2000FFF782F9B06000203073384600F0B6FA60
:100E3000014628682E22115400F036FA207A012843
:100E400003D12868617A20300172E07AA17A000625
:100E500000140843B121C901401881B23B200AF0B7
:100E60004FF80A4829680160012006F027FD00209C
:100E7000074A694600900A804880042168460AF0C3
:100E8000F7FFF8BD66030020D0030020D403002044
:100E9000220500001CB5002000900190A5216846A5
:100EA000C900018004214180C21D811D01A809F0F3
:100EB0004EFC082168460AF0DBFF1CBD0EB5002081
:100EC000009001900649684601800421418002A9F2
:100ED00001A808F053FF082168460AF0C9FF0EBDBB
:100EE0002A05000030B50446A3B00830FFF76FF9BB
:100EF00017490968884229D11649042008708821B9
:100F00006846FFF752F9A579134968460180291D03
:100F10004180607922790102114368468180A1797C
:100F200081710E4808350078012801D10C480078FD
:100F3000002807D16079217900020843A27902A92B
:100F40000AF058F8294668460AF092FF23B030BDEF
:100F5000880300208C0300201C05000024040020CE
:100F600084030020FEB5044680792179C7086079A2
:100F7000002600020843009020460830FFF727F9BA
:100F800024490968884243D123490420087000207D
:100F9000019002902149684681800221C1806079D8
:100FA000227901021143684601811D4801781D48DC
:100FB000012900D10178002926D100251EE00098E2
:100FC000E9000818F32280B21201821A102A04D212
:100FD000144A1278002A0FD10126134A8218082ACF
:100FE00006D2124A1278012A02D1E279012A03D1EB
:100FF00009190C310AF019F86D1CADB2BD42DED3EF
:10100000012E01D105F056F9062101A80AF030FFA2
:10101000FEBD0000880300208C0300201E05000098
:10102000240400208403002068F1FFFF6E030020E9
:1010300000B58BB010496846018024214180102200
:101040000E4901A8FFF798F80D4801786846017528
:101050000C480178684641750B4801680691416863
:10106000079181680891C0680990282168460AF0B4
:10107000FFFE0BB000BD000015050000A8E1000058
:10108000240400206E030020840A002070B514465A
:101090000D46001BFFF748F86843001970BD0000BB
:1010A00070B51C4D1C4C288840228005000C6080C7
:1010B000211D09F09FFF4221A01C09F073FF21466A
:1010C00040318880154A0020410046070919360F33
:1010D0004B88965B401C7340C0B24B802228F3D3F0
:1010E0002888401C80B22880782802D30C4902202E
:1010F000087000F0F1FD084809F0C0FA0021084628
:1011000009F0E8FC0021012009F044FB05491E20FC
:10111000087070BD6A0400203A0D002098E10000BC
:10112000660400206804002010B50E4800240470F6
:1011300004210D480AF030FF0C4804700C48407E32
:10114000012803D105F00CFF05F056FF0949502096
:10115000088005200BF0CAFF012000F0ADFC064816
:10116000047010BD83030020001006406B030020B4
:10117000B40A0020B603002099030020F1B53548D9
:10118000354B01884288324C89188288C08827787C
:101190001018081800045A891946800C01250026E9
:1011A000C988824201D2062211E01A89824201D204
:1011B00005220CE0814201D2042208E09A88824292
:1011C00001D2032203E05A88824202D20222227014
:1011D00005E01A88824201D2257000E026705F2265
:1011E000D2005043FEF7A0FF1C4908801C4800783D
:1011F000022805D11B4800782E2801D11A48057015
:101200001A48FF2302881A48F53301789A4208D910
:10121000002903D11748057004F0A2FB144805709B
:1012200004E0012901D113490D700670207887422E
:101230000CD01149012806D90E700099012903D15B
:1012400007F0EAF800E00D700C480680F8BD0000D9
:101250007A03002008040020EE0C00200604002081
:10126000D9030020C50300207003002004040020DF
:101270007D0300206F0300207B030020000400207A
:1012800010B5044648000649085A0121C902401811
:1012900080B209F04BFB032C01D10249484010BD3C
:1012A000A4DF0000FFFF7F00F0B50646006985B0AF
:1012B000006800F073F8014633480229007C02D828
:1012C000F321490101E00F21490235467F272035EE
:1012D00000284FD00C1820460122294609F08AFE2A
:1012E000204610300122E91C09F084FE20462030FF
:1012F0000122691C09F07EFE204630300122291DA2
:1013000009F078FE204640300122A91C09F072FE47
:10131000204650300122691D09F06CFE68787F2854
:1013200000D96F7028797F2800D92F717069006803
:1013300000F034F8E97904464A00000189184018A1
:1013400012490322401803A909F054FE706911499B
:101350000368A0000E4A095812586C460EC40E4984
:101360000B586846827B417B007B00F065F8287251
:1013700005B0F0BD002028706F70FF21A970E870E3
:101380002F716971D2E70000940A0020D01E00007E
:1013900090E00000ACE0000074E00000184A194B37
:1013A000052182189A4201D8002126E0164A174BDF
:1013B00082189A4201D801211FE0154A154B821864
:1013C0009A4201D8022118E0134A144B82189A421B
:1013D00001D8032111E0124A124B82189A4201D817
:1013E00004210AE0104A114B82189A4205D9104A8A
:1013F0008018104A904200D8062108467047000025
:10140000C0B4B3FF40AC270080345BFF76B92A003C
:10141000007B30FFB6FB3900407FF6FEF68D0C01F5
:1014200040F1E9FD364B4C0000A69DFDB6CF6A00A9
:1014300040D632FD405DC60070B504460D460698A4
:10144000059E0499984201D8204670BDB04201D350
:10145000104670BD884207D8C01A2A1B5043C91ACB
:10146000FEF762FE001970BD401A521B5043711AFC
:10147000FEF75AFE401970BD10B51349134A0968AA
:101480002031897BC9008B18DC88844201D2062078
:101490000FE09C88844201D204200AE05B888342EA
:1014A00001D2022005E0515A814201D2012000E020
:1014B00000200749074A097A535C834202D05054FE
:1014C00007F002F810BD0000D0030020B60C002089
:1014D000940A00207803002010B5C27F0B4C83696A
:1014E0000168002A07D0012A02D0022A02D004E0B3
:1014F000C91800E0C91AA14201DA214603E0044AF2
:10150000914200DD1146816010BD000040771B0054
:1015100080A4BF077CB505460D486A4601A900783E
:1015200000F0EAFE002811D10A4C694620780A79B9
:10153000824201D9104603E00978814200D2084670
:1015400069460B78294600F027F820607CBD000032
:10155000C50300205004002070B504460A46203020
:10156000A18B837B084650432568094A28181268D6
:101570009D005359074A83421268525901D21046BE
:1015800004E0824202D91846FFF780FD206070BD5A
:10159000F4030020F80300204018C0B2FF2801D057
:1015A000824201D9184670478342FCD210467047E8
:1015B00010B586B014460022019202920392049262
:1015C0000122009201AB0A46194600F053FD0020AB
:1015D00001AA8100535861588B4202D0012006B005
:1015E00010BD401CC0B20428F3D30020F7E7000070
:1015F00030B504463223FF20094D00214A00AA5A83
:10160000A21A12B2002A01DA524212B2934201DD4A
:10161000084693B2491CC9B23229EFD330BD00004D
:1016200040DF0000F8B505460026AFB23805400F90
:10163000042815D1F805C00D002400900E48610063
:10164000415A0098814207D121460220FFF718FE37
:10165000A84201D12046F8BD641CE4B2682CEDD349
:101660006D08F80702D0012080050543761CF6B20C
:10167000172EDAD3FF20F8BDA4DF0000F8B500254F
:10168000154F2C466E46052138460AF092FC01287B
:101690001AD009F011FD305514200BF027FD641C01
:1016A000E4B2022CEFD3684601784078814210D131
:1016B0000A480C4A01700A4801700220108017295C
:1016C00004D0162904D004E00020F8BD012500E074
:1016D00002252846F8BD00000010064091030020B6
:1016E000920300202A040020F0B5434D8BB0284619
:1016F0004030079028300490103003901030029052
:101700005030019050300446283400260890F000F4
:101710000A90FF30FF300230FFF750F8B700E85171
:101720000A98FF30FF300630FFF748F80799761C1B
:10173000F6B2C8510A2EEAD300262520B7000001D0
:101740003818FFF73BF87919761CF6B28862062E36
:10175000F3D301200590204609F002FC27480499A4
:1017600002680A60049942684A60049922688A60A3
:101770000499A268CA60039982680A60C1680398E4
:1017800041600398616881600398E168C16000204E
:101790001421029A4143891802015219CCCACCC1C2
:1017A0008200401CA258C0B20A600428F0D3052071
:1017B0000090019B029A0399049800F05BFC0020C2
:1017C00013231C1AA500019A019C810052586459E8
:1017D0006240089C6250079C61588A4202D00020F7
:1017E000059004E0401CC0B20A28EAD305980449D9
:1017F000087005980BB0F0BD0407002088E10000D8
:1018000074030020F0B50146827F0020C0435DE0F4
:101810002FD22F4A4969127809682E4B2E4C2F4E31
:10182000012A19D02E4D2F4F022A1BD0032A21D076
:101830002D4B2E4C2E4D042A20D0052A25D0CA1817
:10184000AA4243D92B4A2C4B8A189A4228D82B4AB1
:101850001278012A20D023E0CA18A24236D9284A99
:1018600089180FE0CA18274B9A422FD94919B94253
:101870002CD9F0BDCA18A24228D9F7E7CA18AA4243
:1018800024D90919B14221D9F0BDCA18AA421DD9DB
:101890000919A9421AD9F0BD1B4A1278002A15D19C
:1018A0001A4B0A199A4211D9194A1A4B8A189A42A4
:1018B00003D8194A1278012A08D0184A8918184AF8
:1018C0009142E8D8174909780129E4D10020F0BDF8
:1018D00069030020004624FF761A0600B6C62D00D4
:1018E00040DF6FFD36420F00007B30FF00A69DFDFC
:1018F000B6FB390040F1E9FD364B4C00DB0300201C
:1019000080217FFD360D0300DE030020B6CF6A0084
:10191000407FF6FEF68D0C01DC03002040D632FD40
:10192000405DC600DD03002010B5C8281ED2104B54
:101930001B5C1C07240F072C18D2012914D10D4958
:10194000002A02D0012A07D00EE01A060ED58A78A6
:1019500082420BD0097905E05A0607D5CA7882423F
:1019600004D04979814201D0012010BD002010BD72
:10197000B40B0020B40A0020142809D20649400004
:10198000085A5F21C900401AFF214231884201D321
:1019900000207047012070478E0C0020F1B582B006
:1019A000FF2208216846FEF7F9FB1925ED0177268D
:1019B00076010F272C467F02A01B382838D3F3204E
:1019C0000001201A202833D3072080020121201A89
:1019D000490288422CD3EB200001201A202827D36B
:1019E00075204001201A082822D3029801281BD014
:1019F000AC421DD36B204001201AC82818D30F48D1
:101A00002018182814D3F5200001CB21201A090131
:101A100088420DD339208001201A302808D3074886
:101A200090302018082803D36946204609F0FDFAB3
:101A30000834A4B2BC42BFD3FEBD0000E8F0FFFFF3
:101A40007CB5FF2208216846FEF7A8FB0024392553
:101A5000AD01E0004019694609F0E7FA641CE4B200
:101A6000052CF6D3FF2228210148FEF797FB7CBD09
:101A70008E0C002010B50A48002404700948042187
:101A800004700948048009480AF086FA08480021D1
:101A90000470084608F08AFB06490120087010BD52
:101AA0008D030020900300208E03002000100640CC
:101AB0006B0300206F030020F1B5724882B0076805
:101AC000042171480AF068FA704900200870014644
:101AD000062008F05FFE3C462034E07A002800D063
:101AE000012008F0B1FF0021052008F053FE00217D
:101AF000084608F0EFFF0021012008F04BFE0C2003
:101B000008F02EFF0546C0070AD00021022009F088
:101B1000F7F96D1EADB201200BF0E8FA002DEED101
:101B200000213F2009F0ECF95948817859480143D8
:101B30007D2009F0E5F9B87FCF2803D35648007817
:101B4000012823D038690568284608F0B7FF617975
:101B5000A0780191009023796278E178207808F0EC
:101B60002BFF284600F052F90121002008F012FE58
:101B7000E67C4A49482009F0C3F9B87F0C25CF28F4
:101B80000AD3474808F078FFCC253DE04548464950
:101B9000007880000D58D7E7012E35D043480078F3
:101BA000002804D0424843490078097802E03969A6
:101BB00008794979022816D0032814D03E4A012812
:101BC00017D0108808F058FF08F09AFF3B4DA07A14
:101BD000002817D03A490978002913D0401EC0B216
:101BE00008F0B6FC10E0FFF74BFB08F011FF354D95
:101BF000EDE74800105A08F03FFF08F081FF2F4D35
:101C0000C035E4E708F0EAFC214830274038C17CC1
:101C1000012912D12C49097801290ED02B490968D4
:101C20008A7FCF2A09D22031C97C012905D0418D74
:101C3000008D08F0A7FC3D4302E008F0E1FCBD4345
:101C4000012E06D0E07B012814D02148007801281D
:101C500010D008F0BDFC1F48294601403F2009F084
:101C60004FF904F04FFE0298012802D1002005F040
:101C700025FEFEBD08F042FC0120C00229460143BA
:101C8000ECE70000D0030020001006406B030020AA
:101C9000D40A002040E90000C9030020A8B30000D6
:101CA000410A00006E040020D8E0000081030020FB
:101CB0001C0400201D04002040DF00000C04000074
:101CC000DF0300200C0700008D030020D403002058
:101CD000E0030020FFF70000F8B524480068044640
:101CE0002034217A009140690421057946790768FA
:101CF0001F480AF051F91F4900200870014608F0FA
:101D000049FDE07A002800D0012008F09DFE384609
:101D100008F0D4FE09F09AF80A200BF0E7F93846EB
:101D200000F074F80121084608F034FD05200BF09E
:101D3000DDF93946009808F0CDFE0A200BF0D6F9FF
:101D4000012D06D0022D0AD0032D08D008F054FC36
:101D5000F8BD09497000085A08F08EFEF8BD3146FA
:101D60002846FFF78DFA08F053FEF8BDD403002093
:101D7000001006406B03002040DF000010B515483E
:101D80000123C27E022A08D00021012A07D0847EC6
:101D9000022C02D0012C02D002E0437200E041721A
:101DA000417A44234B431B180B4C98332360002A81
:101DB00002D000290BD000210172C9B24422514344
:101DC000081806499830086000F00AF810BD012193
:101DD000F2E70000940A0020CC030020D00300208A
:101DE0000748084AC17E002905D0417A4423594357
:101DF0000818983001E0044800681060704700003F
:101E0000940A0020D4030020D00300200A4910B512
:101E1000884201D201210CE0401C09D0002101249C
:101E2000042008F0B7FC2146032008F0B3FC10BDE5
:101E300000210024F4E70000003FAB01F8B50726BD
:101E40000F46044600250A21FEF76EF90A21414398
:101E5000611AB955761E6D1CEDB2F6B20446082D16
:101E6000F1D3F8BDF8B50646002508480F462C46C4
:101E7000315D0A2908D241434D190A21FEF754F970
:101E8000641CE4B2082CF3D33D60F8BD8096980042
:101E900010B5084B00225B7804E0845C9C4203D0C0
:101EA000521CD2B28A42F8D38A4201D2012010BD1C
:101EB000002010BD140B002010B50278FF2A13D0AB
:101EC000002A11D0002316E0C25C002A0ED0FF2A9F
:101ED0000CD01446303C092C0BD9113C032C08D9EA
:101EE0002A2A06D0232A04D0002010BD0021C15484
:101EF00003E05B1CDBB28B42E6D3012010BD000087
:101F0000F0B59C460B4B00245D7801230CE0065D88
:101F10000F5DBE4206D06746012F09D1AE4207D100
:101F2000054E3370641CE4B29442F0D30120F0BD3E
:101F30000020F0BD140B002039040020014600B53C
:101F4000FF200B000AF0FBFB1015151515151515D4
:101F5000151515090B0D0F11130A412000BD422064
:101F600000BD432000BD442000BD2A2000BD232029
:101F700000BD3031C8B200BDF0B585B00D46064693
:101F800000246F466946204600F01EF801280FD154
:101F900000203A18315C127A914203D1401CC0B241
:101FA0000328F6D3032806D0641CE4B2102CE9D32E
:101FB000002005B0F0BD082269462846FEF7DCF88F
:101FC000002028720120F4E710B50C46072100011B
:101FD000890240181022214609F00CF82078203898
:101FE0005F2801D3002010BD012010BD10B505F001
:101FF000C1FDC8200BF07AF804F0FEFF0120FFF7C6
:102000005BFD10BDFFB51F460E4604460025FF2CA4
:1020100012D0C82C00D300243A4620460299FFF77C
:1020200083FC01280AD0A0196D1CEDB2C4B2C82DE2
:10203000EDD3FF2004B0F0BDC724EDE72046F9E75B
:1020400010B50C4602460023FF2A0FD0142A00D3F5
:1020500000221046FFF790FC012809D010195B1CE4
:10206000DBB2C2B2142BEFD3FF2010BD1322F0E776
:10207000104610BDF8B516460A4601461D4600201A
:10208000069F07F0C1FE002406E0200141198019D7
:10209000FEF718FD641CE4B2BC42F6D3F8BD0000A4
:1020A00030B50C4DA88D2C4628862034E07B0128C5
:1020B0000AD1A07B0121FFF7C3FFFF2806D0A07340
:1020C00005494000085A2886002030BD0020E073F2
:1020D000401E30BD940A00208E0C0020F8B50A4D39
:1020E0000A4E2C780746002C05D00E2C02D8375506
:1020F000641C2C70F8BD2D220F210448FEF74EF809
:102100000020B073F3E70000BB0300201C0D00208B
:1021100070B5094E05463478002C06D0082C03D241
:1021200006480555641C347070BD0A220821034816
:10213000FEF734F8F4E70000E6030020E703002090
:10214000FEB56248624C0778624801464031019111
:10215000614903790968064605460A4600938036B8
:10216000203520323B000AF0EAFA391E202237419E
:10217000454D6E702B8D6A7C24262D2F31333555BD
:1021800066686C8F91727A9FA2A5838874ABABABA3
:1021900057595B5D62649C7678ABA7A97E50939596
:1021A000989AACAEAB00007C89E0907987E0D0795A
:1021B00085E0007F83E0C17C012926D1007D27E0F6
:1021C000D07A7CE0407F7AE0807E78E0C07E76E066
:1021D000807D74E0407C72E00879022802D00328F8
:1021E00002D012E0487913E0487909E00879012823
:1021F0000BD1F7E7087B022809D0032805D1487BDB
:1022000069305CE0087B012801D0002057E0487B62
:10221000401C54E0407D52E0B07B50E0B0784EE08E
:10222000F0784CE0B0880A21FDF77EFF47E0107C93
:1022300045E0D07B43E0807F41E0C07D3FE0507CC3
:102240003DE0287E3BE0C87F39E0886937E0007ECA
:1022500035E0687E33E0A87E31E0E87E2FE0287F1D
:102260002DE000982BE000231A460121009801E0A0
:10227000002303E0FFF7C6FE21E0012301221146FF
:102280000020F7E7907A1AE0107B18E0507B16E008
:10229000124800E01248007811E01248FBE71248AB
:1022A000F9E712480078B3E70198407807E0019811
:1022B000C07804E0C07FABE7907C00E0B07C206099
:1022C000FEBD0B48E7E70B48E5E70000C50300202B
:1022D00050040020940A0020CC030020DB030020DF
:1022E00069030020DC030020DD030020C703002079
:1022F000DE030020DF03002000B503000AF01FFA10
:10230000391E212D353835382D53324132442F4175
:10231000272D2D32412D2D2D32323232412F444D79
:10232000444432535353323B473E3B324A2D2D53A4
:102330003232443232273232323253000023092003
:102340002DE01A4800682030807B012802D000234D
:10235000052024E00023062021E000231EE00023C6
:1023600004201CE00023012019E00023D02016E007
:102370000023322013E00023032010E00323632016
:102380000DE000230A200AE00023C72007E0052310
:102390003C2004E00123102001E0012302200B7007
:1023A0001070002000BD0020C04300BDCC03002001
:1023B000F8B55C48007803287ED001250C2008F091
:1023C000CFFAC00778D00021022008F099FD022042
:1023D00008F0C6FA0446000523D553485349057052
:1023E0000520534E0870307810280AD35149002038
:1023F0000A1852780A54401CC0B20F28F8D30F2094
:10240000307008F094F9FFF799FD02464949307899
:102410000A54401C307048480078042801D105F067
:10242000C3FD600501D545480570E00505D5444864
:10243000057008F06DF943490870A00502D54049C0
:1024400000200870600601D53F480570200602D5BF
:102450003D4900200870E00628D53C480A21057057
:102460003B4801803B48C17C01291FD13249097892
:10247000052909D138490978002905D1374A14219D
:102480001180374A00211170807E00280ED0354916
:102490000878012805D0002808D13348008814287E
:1024A00004D2314A1420108000200870A00606D5FE
:1024B00026490020087000E032E0254908806007C6
:1024C00005D52A4801210570062008F063F9200788
:1024D00005D5264800210170062008F05BF9E004CC
:1024E00000D46BE70F4800780428FAD12048007820
:1024F0000128F6D11F4800780028F2D11E4E1F4F48
:1025000000245F2008F02CFA3178641C4A00491C32
:10251000B852E4B23170042CF3D305F0E1FB4DE77F
:10252000F8BD0000D9030020AA03002042040020C7
:102530002F0400200C0D0020D8030020AE03002043
:10254000AB030020AC030020AD030020AF0300204C
:10255000B8030020940A0020DA0300203203002090
:10256000340300203C0300203A030020B003002085
:102570006604002065040020670400203A0D002056
:10258000F0B50446F84885B000681646807F019093
:1025900000200290F5480D460078052802D1002061
:1025A00005F08CF97D20F249C0000880F1480390C5
:1025B000007E012802D1F0491E2008700027002D5E
:1025C0000BD0152C02D0ED491020087003F0C8F98B
:1025D000EB480178012933D03BE0EA480078002835
:1025E00003D004F0D1FAE7480770E74800780028E4
:1025F00003D004F08DFBE4480770E448007800281D
:1026000003D004F055FBE1480770E1480378002B44
:102610001FD0D849D44820390268497A019804F07B
:10262000D5FADB4801210770D2482038407A03F000
:1026300095FC0120FFF740FA002005F0F7F808E0CC
:102640000770012003F0C8F9152C02D00120D149F0
:102650001CE0C8482038807C01281ED1C34800787F
:1026600001281AD0152C18D00F2C12D0172C14D0EA
:10267000162C12D0012D0AD1002E08D1022003F011
:10268000ABF9C54904200870C4490120087005B0A1
:10269000F0BD012EEED1012DF9D1C14800780028FE
:1026A00009D0152C07D00B2C05D00C2C03D00D2CE9
:1026B00001D00E2C0FD1BB480078002813D0152C68
:1026C00011D00B2C0FD00C2C0DD00D2C0BD00E2CB0
:1026D00009D00A2C07D0012DD9D1002ED7D1022044
:1026E00003F07AF9D3E7B048007801280FD1152C10
:1026F0000DD1012E02D0002D05D008E0012002905E
:10270000002D02D003E001200290A7480770A148E5
:10271000007801280FD1152C0DD0012E02D0002DEC
:1027200005D008E001200290002D02D003E0012036
:102730000290984807709D480178012909D1092C19
:1027400007D90F2C05D00E2C03D007709849012013
:10275000087098480078012805D1152C97D0162CC0
:1027600095D0172C93D0029800282BD17F48007861
:1027700001280CD0172C75D0162C73D08E480078F9
:10278000030009F0DCFF0583898F959BA0008B482F
:10279000007800281AD0002E14D1012D12D1FEF796
:1027A000C3FC0398007F002804D00A2148438449D1
:1027B000087002E0002005F081F8152C03D075495F
:1027C000012008707FE001207749FAE7152C0BD033
:1027D000162C0DD02046FFF7B1FB0446FF2872D01F
:1027E0007848002E06D007E0284601F0A9F96AE0F3
:1027F000FE24F5E7012D02D0002D18D063E05D4DD9
:102800006035A97B012905D1042109F0EBFB6E4954
:102810000120087007F0E2FEA87BFE2C03D02146C1
:1028200008F03AFA4FE0694907F0C8FB4BE0042191
:1028300009F0B2FB64480770002007F0A7FB64486A
:1028400000682030807A002809D062490978002980
:1028500005D0401EC0B207F07BFE34E002E007F076
:10286000BDFE30E054480078032807D0042805D086
:1028700032462946204601F0B1FD24E0002E22D147
:10288000012D20D154480221017020E03246294612
:10289000204600F0F7FE16E032462946204600F0BA
:1028A000D7FA10E032462946204601F009FB0AE03B
:1028B00032462946204600F0F1FC04E03246294623
:1028C000204600F0EBF944480078002804D0424C40
:1028D000207803F081F82770404C2078012805D13A
:1028E00004F0C6FB3E490120087027703D4C20785B
:1028F000012802D104F094FF27703B4C2078002877
:1029000008D0002E26D020490120087028492770C1
:1029100001200870354C2078002804D0002E1CD0EF
:102920001A4908702770324C2078002805D0002EF4
:1029300016D014490120087027702E4D2E4C2B788C
:10294000002B6CD0002E59D0114803702078FF283E
:1029500063D063E004F0DCF9D8E704F0A9F9E1E71B
:1029600004F012F9E8E70000CC030020D8030020AF
:102970002E030020B40A00206C03002093030020E3
:10298000C1030020A5030020A6030020A803002007
:10299000A703002094030020A90300207003002057
:1029A000800300208103002095030020670300209E
:1029B0006F03002068030020D90300208303002058
:1029C0006D030020001006406B030020D6060000B7
:1029D000D4030020DF03002096030020A30300207F
:1029E000A4030020A20300209E0300209F030020D8
:1029F0009C0300209D030020990300203A48417A5F
:102A00003A480268907F04F0E1F8394800780328DA
:102A100004D038490120087000E027702F70354E2F
:102A2000354D3178002918D034480078012807D076
:102A30002D48407A03F092FA2078FF2806D006E06D
:102A4000002003F08BFA31780120F3E72770012092
:102A500028702A483770077002E02878002812D0C2
:102A6000FFF78CF904F014FE0120FFF725F8244845
:102A700007702448077024480770244807702448CA
:102A8000077047702F70234D2878012802D1FFF777
:102A900057FB2F70204D287801280BD10F210020E3
:102AA00003F042F8012003F00BF904F06DFD032060
:102AB00020702F70194D2878012802D105F05AF89E
:102AC0002F70174DFF262978FF2908D04B2902D8EF
:102AD000002003F029F8002003F0F2F82E7020788F
:102AE00004F0A4FE2670D2E5940A0020CC03002056
:102AF000D90300209A030020980300209B030020A4
:102B0000C2030020BC030020C3030020BD0300203B
:102B100078030020A4030020A1030020A0030020CC
:102B200097030020F8B55148007801286AD0504832
:102B30000078042803D14F480078002862D14E4C19
:102B40004E48217800274E4D012915D0052109F066
:102B500030FA4C49002801D00F7028E00878401C5A
:102B6000C0B20870052822D301202070014600223F
:102B70001520FFF705FD1AE00521064609F019FAB0
:102B8000012814D114200AF0B1FA0521304609F0C9
:102B900010FA01280BD1002211461520FFF7F0FC96
:102BA00027702878FF2802D037490120087008F0E4
:102BB00083FA364904460878354EA04247D1354855
:102BC0000188491C89B20180022908D080291AD0C5
:102BD000054617D90B2C2AD00C2C28D030E0FF2C1E
:102BE00006D02C70002201212046FFF7C9FC08E026
:102BF0002878FF2805D032780021FFF7C1FCFF209C
:102C000028703770F8BD0E2C09D00F2C07D0162C69
:102C100005D0172C03D00B2C01D00C2CF2D10120A5
:102C20003070024601462046FFF7AAFCF8BD01209D
:102C30003070080704D1012211462046FFF7A0FC9E
:102C4000288815498842F1D180202880F8BDFF28C6
:102C500006D0FF2C04D0327800212878FFF790FCB2
:102C60000A4804700B480780F8BD0000E00300200C
:102C7000D9030020660400202D0400200010064027
:102C8000920300202E0400209403002091030020D2
:102C90002C0400202A040020FFFF000010B50C4681
:102CA000030009F04CFD0E1212121212121212122F
:102CB00012080C0C0D0C1146204600F03DF810BD1A
:102CC0001146204600F004F810BD00F063F810BD76
:102CD00010B500291ED101281CD10F490878002801
:102CE00006D0401EC0B208700C4A0A2111540EE0F2
:102CF0000B4A002010700B4A10800B4A108008709D
:102D00000A49087007F09AFC09490120087009492E
:102D10000420087010BD0000E6030020E703002037
:102D2000670400206A0400206C0400206504002071
:102D3000660400209903002010B5002919D101284C
:102D400017D10C49002008700B49012408800B4959
:102D50000C4A08700A490C700B490A8048800A48DE
:102D60000A494030C180FEF79BF905F031FD084863
:102D7000047010BD670400206A040020E6030020F0
:102D800065040020CDAB00003A0D0020BADC000045
:102D900066040020F8B50446002A26D1012924D172
:102DA000FFF7B6F922480425057022480178062964
:102DB0003BD30021017069461F48FFF753F81F48B5
:102DC0001F4A0068009B126800218E0087599F42AD
:102DD00002D396599E4204D9491CC9B20729F4D39B
:102DE00001E0072902D312480570F8BD15480022FA
:102DF0000470154C20682030817318464B300090C9
:102E00002168898BFEF742F92168086088600846CE
:102E1000FEF74AFA0D49206808600120FEF74CFED3
:102E200007F07AFB07F0FAFBF8BD06480470F8BD1E
:102E300099030020E6030020E7030020F4030020AC
:102E4000F803002097030020D0030020D4030020C3
:102E500070B514460D46030009F071FC16282828A9
:102E600028282828282828101A1C152B232B2B2B20
:102E70002B2B0C2B084600F063FE70BD1146284634
:102E800000F06AF870BD1146284600F01DF870BDCC
:102E9000012201E00022D2432146284600F08AF9AF
:102EA00070BD1146284601F00DFB70BD00F0B6F86C
:102EB00070BD002AFCD10129FAD102490220087014
:102EC00070BD000096030020F8B5002923D1012829
:102ED00021D11948012404701848194D0078194E61
:102EE000002803D004F06AFC102023E016480027D5
:102EF0000178002910D0491EC9B20A23134A017073
:102F00005354002904D0012904D11178002901D19A
:102F100007700EE03470F8BD0D480E490278012AA2
:102F200005D00A78012A02D002F0C2FBF8BD077072
:102F30000F7032202870EDE79603002090030020E8
:102F40009703002099030020E6030020E7030020F8
:102F50002804002029040020F8B5002937D10128D1
:102F600035D1224D022028702148012404702148C7
:102F7000214F0078214A0026002808D020480078F8
:102F8000012822D01F480078012808D01DE01A49E6
:102F90002031C87B002802D001280DD015E01A4846
:102FA000017800290FD001290FD1184B398E1B78D9
:102FB0005B00D152067016E015480378002B02D052
:102FC000012B05D001E004702C7012480670F8BD8A
:102FD000897B0023DB43490053520670FFF760F8FA
:102FE000388E07F085F90C48EDE7000096030020C5
:102FF0009903002090030020940A00208E0C0020EA
:103000002504002027040020280400202604002096
:1030100029040020E60300209F030020FEB504469B
:10302000002A32D1012930D1534A544811780190F5
:1030300000270225C07B01290CD0514909780129BC
:1030400033D050490978012932D04F4909780029F5
:103050002BD12FE04D4E0121317017704C4A012CBD
:1030600011704C4A117006D0022C15D0032C15D0CB
:10307000002C17D008E0002808D000210198C17367
:10308000FFF70EF8002803D03570FEBD0121F5E7EB
:103090003A482038008E46E0012000E0002002F08F
:1030A000B3FBFEBD02F004FBFEBD38480570FEBD5B
:1030B000022602E001280ED000262046FFF728F85D
:1030C000344901200870354833490278002E04D075
:1030D000022A31D02DE00126EFE7012A17D0042A79
:1030E00027D3077069462C48FEF7BCFE2C49009890
:1030F000FDF71AF82149009020398A8E824202D8C1
:10310000CA8E82420AD2234901200870CDE70A788C
:10311000012A0ED94A700F7005700AE0214A80B268
:103120001470888525E007F0E3F81F490120087036
:10313000FEBD1C480470FEBD077008780A2249785D
:1031400050434018401EC7B2012E04D0142FACD2F9
:1031500016480770EDE73846FEF70EFC0128A4D1AB
:10316000104813490470019887737800085A03497E
:1031700020390886D7E7000067030020B40A002042
:10318000290400202804002090030020960300203A
:103190006F03002099030020E7030020E6030020CE
:1031A00010270000970300209F0300202604002022
:1031B0008E0C0020F8B594460A462F492D4E0B7808
:1031C000B77B2E490125002A01D1012812D0002BFE
:1031D00014D1012812D12A480078012811D0294899
:1031E000244C0078203C00281CD027480078002878
:1031F00010D001E0002B02D002200870F8BD0D7045
:10320000E9E7224C1323002261462078FEF7C4F937
:10321000207004E0208E0022614604F073F91C48FF
:103220000570F8BDF07B002814D060463818C0B295
:103230006146FEF705FFFF2808D0874206D0B0732D
:1032400014494000085A208613480570208E07F064
:103250004FF8E4E7A18D604608180649E28E203950
:10326000898E824201D2084602E0814200D910468E
:10327000A085E8E7B40A0020E603002096030020BA
:1032800028040020900300202504002026040020AC
:10329000990300208E0C00209F03002070B5144677
:1032A0000D46030009F04BFA16282828282828285C
:1032B000282828101F21151A2B2B2B2B2B2B0C2BDE
:1032C000084600F03DFC70BD1146284600F06EF83F
:1032D00070BD1146284600F01DF870BD1146284605
:1032E00000F090F970BD012201E00022D243214696
:1032F000284600F095F970BD00F03EF970BD002A37
:10330000FCD10129FAD102490220087070BD0000E9
:1033100096030020F0B5002922D1012820D11749B9
:10332000002408701649174D0E783222164B002ED5
:1033300007D00327012E14D0022E11D10C701A7061
:1033400019E02C701149124C0978E1761149134C9F
:1033500008701149087002212170114908701A7013
:10336000F0BD10480678002EE8D0761EF1B201704C
:103370000D4A0A2050542F70F0BD00009603002023
:1033800061040020990300209703002059040020C5
:10339000940A00206F030020A20300209A0300205B
:1033A0009B030020E6030020E7030020F8B5604CF3
:1033B00000292268967F5F4A577A25D1012823D1B8
:1033C0005D4A5E48117800780B4603430225002BC6
:1033D00018D0012914D0032914D0594A01211170A1
:1033E0005849594A0978136800290ED002294CD04F
:1033F0005448012908D15549097800297ED001E0B7
:103400000128EAD14E480570F8BD002828D10022D5
:10341000FA214D4C1846FDF739FE074600224C496B
:103420002068FDF733FE2268D11B09B27D2903DD38
:10343000FA23591A09B2FA37121AFF2312B2393392
:103440009A4203DD424B9A1A12B2C018914204DC30
:10345000404900202760087002E020603D48057068
:10346000C82E02D3374805700BE0364801210170A1
:1034700039480022067011463046FEF755FA3749A2
:1034800008702D48182105704AE000281BD0022141
:10349000002002F063FD0221012002F05FFD3048B0
:1034A00030490278206802710978417102734173D2
:1034B000C82E27D321682E20405CC83088771D494C
:1034C000CA19907025E01846FDF768FF1E490246AC
:1034D0000B683146206803F0A3FD234800780128DB
:1034E00006D11F480178206801711E490978417191
:1034F000206806C842600160164900E016E00978BD
:103500008177D5E714482168007888770949CA1976
:103510001071C85515480B490570002008703121FD
:1035200013480170134903200870F8BD0570F9E7CE
:10353000CC030020940A00205E04002058040020E0
:10354000960300206104002054040020E6030020BC
:103550007102000060040020620400206304002067
:103560005A0400205B0400205C0400209D0300201E
:103570009703002099030020F8B50646002A23D1BE
:10358000012921D1174802270078174D01281AD1A7
:1035900028703046FEF7BCFD14490320087014481B
:1035A00014490278032A1BD30022027012486423B4
:1035B00002780A245A43437880786343D218141857
:1035C000641EC82C01D32F70F8BD0E700022A0B26B
:1035D0001146FEF7A9F90949087009480470F8BDB9
:1035E0000E70F8BD610400209603002099030020AE
:1035F000E603002097030020E70300206304002077
:1036000062040020002905D1012803D10249087075
:10361000024908707047000096030020A1030020B3
:1036200070B515460A00114907D001281DD1104870
:103630000078012808D0022016E0012815D1087072
:103640000C4A00201070F2E70B4CC72320780022B0
:103650002946FDF7A1FF002220701146FEF764F90C
:103660000649087006490320087070BD96030020C3
:1036700061040020E60300206204002063040020AF
:1036800099030020F8B506463148324F00781446B9
:103690000D46012808D1152E06D00D2E04D0002A83
:1036A00001D1012951D0F8BD2B480078002812D053
:1036B000002C10D1012D0ED13046FEF73FFCFF2823
:1036C00009D001243C70FEF709FD24490020087050
:1036D00023480470F8BD330009F031F8162D2D2D64
:1036E0002D2D2D2D2D2D2D101A1C15232833333360
:1036F00033330C33284600F023FAF8BD2146284620
:1037000000F068F8F8BD2146284600F02BF8F8BD17
:10371000012201E00022D2432146284600F054FB5A
:10372000F8BD2146284600F0E3FAF8BD21462846B8
:1037300000F0C8FEF8BD22462946304600F06EF87B
:10374000F8BD002CFCD1012DFAD102203870F8BD53
:103750008D03002096030020BA0300209903002067
:103760009403002070B5002914D1012812D1124908
:1037700008701248007801280AD011480024007807
:10378000104D114E002806D003F0C4FF10200FE0AA
:1037900001F08EFF70BD0D4908780028FAD0401E58
:1037A000C0B208700A210A4A0028115401D13220FF
:1037B0002870347070BD0000960300208D03002037
:1037C000800300209703002099030020E6030020D7
:1037D000E703002010B500290CD101280AD10A48BE
:1037E00001230370094900200C78094A002C087055
:1037F00001D0107010BD07480749037002201070F7
:103800003920087010BD000096030020E603002058
:1038100099030020A403002097030020F8B5074671
:10382000B148002A0068867FB048447A6FD10129E8
:103830006DD1AF4901200870AE48022501780129F9
:103840000DD03846FEF764FCAB4800220270AB494D
:10385000AB48C82E71D20378032B6FD0D3E0002180
:103860000170A84901200870A0483B00427AC17E3F
:1038700082189D480068203008F061FF0AA80627DA
:103880004C69748083869073C83E072E69D2817B11
:103890009D4A491C1278C9B2002A01D1042912D0CC
:1038A000062900D9002181739048C83101550019BB
:1038B000817096490120087095490D708C490870F7
:1038C00000208D4968E00521EDE78848012914D0E2
:1038D000022914D0817E012914D0022914D0002C91
:1038E00016D0002141728B49012008708A49824A12
:1038F0000870002111707E494EE0C576F3E7012182
:10390000C176F0E78576EEE701218176EBE728E0E6
:103910000121E7E7754F787E002810D0CF2E0ED218
:10392000C82E11D3107900231A460121FEF76AFB35
:103930000646FF2803D03E553EE067E049E06C486C
:103940001AE076490870CAE0907838550FE0744A5A
:1039500001201070734A00201070734B634A197075
:10396000D076F8BD6148CF2E03D39178015526203B
:10397000E7E791790155B2E00570F8BD01F0B2FFBB
:10398000F8BD01F0CFFFF8BD417A002902D0002137
:1039900041728DE00121FBE70870F8BD5348002219
:1039A0004030C67811463046FDF7BEFF0128C6D12B
:1039B0004E4801190E7106552521002002F0B4F879
:1039C000711C012002F03EF9FE20BAE701F070FE02
:1039D000F8BD02700878642250434A780A235A439B
:1039E0008018897800224018401E009080B211464D
:1039F000FDF79AFF0128A2D148483C4907700A19EF
:103A0000009810716AE045480770F8BDCF2E52D279
:103A100001780629F7D30021017069463748FEF77F
:103A200021FA39480078002805D14049009840180B
:103A30003F49884215D93F4900200A683E49096834
:103A40008C4600998300D6588E4203D36646F358BD
:103A50008B4204D9401CC0B20728F3D301E00728E9
:103A600003D325490020087069E72C491E4D0F70CB
:103A7000296820318A7B82420BD088731B49C83069
:103A800008550919887003F07FF80221204602F0DA
:103A900065FA00982E224B3000902968525C898B81
:103AA0009300254A1268D258FDF7F0FA2968086099
:103AB0000120224970E70378022BA4D10270087814
:103AC0000A22497850434018401EC0B20A28CBD27F
:103AD00012490F7005490A19CF30907108550B49EA
:103AE000012008700A4847E7CC030020940A002010
:103AF000960300206703002099030020E7030020BD
:103B0000E60300206F030020DE0300209C0300205A
:103B10009A0300209E0300209803002097030020B2
:103B2000A1030020580400205904002040F1E9FDC1
:103B3000364B4C00F4030020F80300209D030020C6
:103B4000F8B54D4900240C704D494C4D0A784D494B
:103B50000128097804D0002921D1012A72D087E0F8
:103B600049480078002802D003F0D4FD21E04748FE
:103B7000102600780127002805D003F01FFE4448D6
:103B800006702F7009E043480078002808D003F041
:103B90000BFE3F480670022028703F480770F8BDB2
:103BA000022906D0012904D0032908D0012A1BD1FB
:103BB00016E03A482C70047039480470F8BD394852
:103BC0002C7039490078C87638483A490770384827
:103BD000077002200870384807702D480670DCE72F
:103BE000364800780028E9D0354807703548007815
:103BF000012820D1344E35493078097802460A43ED
:103C000016D0002800D1317031783148032944544E
:103C100013D002202F492E4A08702FA12F4808F0F8
:103C200063FD2A48317801702D4807702D480470D3
:103C30002448047034702C70F8BD2548FEF728F92C
:103C4000E8E7FFE7284E307801280BD004F030F881
:103C500015482030007F002804D00A214843174926
:103C6000087002E0002003F029FE20483470047040
:103C7000002004F001FCDEE7E603002099030020A9
:103C8000D8030020D90300208003002090030020E7
:103C90009703002081030020950300202D040020BD
:103CA0002E04002059040020940A00206F030020F5
:103CB000A20300209A0300209B0300206D03002034
:103CC000A0030020BA030020BB030020C003002093
:103CD0001C0D002038040020257300002B0D00204F
:103CE000BE030020BF030020FD030020B40300201A
:103CF00070B5254A02261268254D937F234A127813
:103D0000002A05D0002902D1012800D12E7070BDF3
:103D100000240122002901D101280AD00D460543C3
:103D20001FD00129F3D10128F1D1002001F06CFD51
:103D300070BD18482A7001780129F9D1047016481D
:103D4000CF2B027001D32E7008E01448164B02707E
:103D5000134802701348C17E1970C476134802706C
:103D600070BD134800780028FAD1CF2BF8D2114843
:103D7000114902700F221148FCF7FEF91048047037
:103D80001048047070BD0000CC030020E603002042
:103D900096030020670300206F030020A10300208A
:103DA00058040020940A00205904002094030020A5
:103DB00080030020BA0300202B0D00201C0D0020E2
:103DC000BB03002099030020F8B594460246324810
:103DD0000F46457A3249445D30480978006801262B
:103DE000002F01D1012A10D000290DD1012A13D0B2
:103DF000012F09D1C82C07D2817F0020491C01F076
:103E000021FF2849FE200870F8BD274A002902D06A
:103E100002201070F8BD167024490978002905D0D9
:103E20006146002003F012FB214814E0CF2C0CD394
:103E3000CF3CE0B2092300226146FDF7ADFB1649F5
:103E40004A19CF309071485520E0C82C05D36146FF
:103E5000FDF782FB17480670F8BD60462018002366
:103E6000C0B21A466146FEF7CDF8FF28F4D084426E
:103E7000F2D009494A1910714855002F06D1411C4A
:103E8000002001F0DFFE0749FE2008700A480B49B8
:103E900006700220B7E70000940A0020CC0300203F
:103EA000E6030020970300209603002080030020F3
:103EB000940300209D0300209C0300209A0300200F
:103EC00070B514460D46030008F039FC1623232371
:103ED00023232323232323101A1C15262B303030B1
:103EE00030300C300846FFF72BFE26E011462846FE
:103EF00000F084F821E01146284600F033F81CE079
:103F0000012201E00022D2432146284600F0ECF9CC
:103F100013E000F0E3F810E01146284600F09EF9A7
:103F20000BE01146284600F0CDFA06E0002A04D145
:103F3000012902D1074902200870074800780228A9
:103F400006D1064800782E2802D1054920200870A5
:103F500070BD000096030020D9030020C503002097
:103F600093030020F8B500291BD1012819D1194865
:103F7000012404701848194E00780227184D0028B3
:103F800005D003F011FC102030702F7007E0154AA7
:103F90001078012806D03220307000202870124896
:103FA0000470F8BD11480178002903D0104B1B782C
:103FB000082B08D00021117001700E4804703220C7
:103FC00030702F70F8BD491EC9B201700A4A0A202C
:103FD0005054F6E796030020810300209703002049
:103FE00099030020C603002094030020E60300206C
:103FF000C5030020A4030020E7030020F8B5002932
:1040000055D1012853D12A4801250570294902209C
:104010000870294E2A4A3378284F2A4811780024FC
:10402000002B10D0322916D00C2914D0312912D0EF
:1040300025480570347025480470214800780A2806
:104040002BD0312030E00A2902D0214A515C39704E
:104050000470357029E0017800290BD00129EAD1DC
:1040600018480221017005F0EBF915480078322854
:1040700002D00CE00570DEE73121002001F054FD94
:10408000012001F01DFE02F0F3FFFCF791FB0E484A
:1040900005700C4834700470CDE70E4800680028A5
:1040A00001D0112000E0122038700B480470F8BDD8
:1040B0009603002099030020C603002097030020E8
:1040C000C503002043040020A30300208103002037
:1040D0005DDC000050040020E6030020FEB5002750
:1040E0000646002A40D101293ED1514901200870DD
:1040F0003046FEF70DF84F49022008704E484F4CED
:10410000007800254E4A002811D0107808282CD0BD
:104110000C2844D0312842D01D2840D001AA02A941
:10412000FEF7EAF8002851D0464805707AE0454984
:104130000878012802D0022802D012E0207805E099
:104140000D7020780A2358436378C018002808D0DF
:104150003D4B1B78834204D3401E107001203B4925
:1041600001E00D705EE00870FEBD3648017806295A
:1041700012D3057069463148FDF774FE344835495D
:104180000670009800224B3000900968898BFCF77C
:104190007DFF31490860FEBD2D480670FEBD2948EF
:1041A00001780329F8D305702078642148436178A9
:1041B0000A2251434018A1784118491E0091C8298C
:1041C00030D22348067024480160FEBD684602795B
:1041D000642A01D3032104E00A2A01D3022100E06A
:1041E000012118480078012804D0022804D00328AF
:1041F00008D011E027780FE023780A26647873430B
:104200001F1909E023786426734366780A277E43E2
:10421000A4789B191B199FB20A4B814200D11D70D3
:10422000974202D9022002499DE70B480760FEBD74
:104230009603002099030020C6030020E703002016
:10424000C5030020E60300204C040020A403002046
:1042500097030020CC0300205004002070B50029F3
:1042600018D1012816D1194E01253570FDF786FDAC
:10427000174802240068817FCF290AD22030C07CF1
:10428000012806D013480078042804D0032802D05F
:104290000CE0347070BD1048104E0078002808D033
:1042A00003F082FA0E493470102008700D48057032
:1042B00070BD012003F00CF934700F21002001F0D3
:1042C00033FC012001F0FCFCF0E700009603002025
:1042D000D0030020C50300208103002099030020A3
:1042E000970300209403002070B50125144600298F
:1042F0000AD0012828D12D48007800280CD010467B
:1043000003F0E6F82A482BE001281DD129482A4964
:10431000057000200870EEE72848294E01783078B3
:10432000002912D0274D082829681BD031282CD00D
:104330001D282AD01F282AD020282BD01046FDF770
:10434000E9F821490220087070BD2049002209784F
:10435000491ECBB2614249B2FDF71EF930701C48CC
:104360000570EEE71B480068838B184650434018E1
:104370001949884201DB002002E0002800DA0846E3
:1043800000221946FCF782FE0DE0002200E0012227
:10439000002301E0012213460819C0B22146FDF7AF
:1043A00031FEFF28CDD02860CBE70000810300203C
:1043B0009403002096030020E6030020C60300209B
:1043C000C503002050040020990300204C04002065
:1043D000A4030020CC030020F6E0F50570B5304BB7
:1043E000304D1B780124002B1FD12F4B1E78002E3F
:1043F0001BD0172816D1002A14D1012912D12B491C
:104400002C700878002807D0401EC0B208702D21FB
:10441000274D0028295403D126491A7032200870EC
:10442000254802702548047070BD254B172805D01B
:10443000D87F20331B78002A03D004E0587F9B7F6D
:10444000F9E7012911D014460C4304D0012AEBD11D
:104450000129E9D11846030008F071F90906090C91
:104460000F12161C191E0600DEE72C7070BD01F03D
:104470004FF970BD01F036FA70BD01F065F970BDFD
:10448000012001F0C1F970BD01F04CFA70BD01F0DE
:104490000FF970BD002000E0012001F0EDF870BDC3
:1044A000D903002096030020BA030020BB0300209C
:1044B0001C0D002097030020990300209403002086
:1044C000B40A002030B5264A02251278254B002A6E
:1044D00005D0002902D1012800D11D7030BD224A2B
:1044E00001241278002901D1012810D00D461F4B5C
:1044F000054316D00129F1D10128EFD11C48817C58
:10450000012929D084740D2018701A4822E01C70EB
:10451000012AE3D1184800780028DFD01D70174821
:1045200018E01748007801280CD0002A01D0012A91
:10453000D4D114490878002807D00020087000283A
:1045400007D104E0012AC9D1F3E70120F6E73220C0
:1045500018700D48047030BD002181740E20D3E71F
:10456000E603002096030020D903002097030020D3
:10457000940A00209E030020900300209403002052
:104580008D030020670300206F030020FEB5BC4DA3
:104590002888401C288007F017FB012803D172B639
:1045A000FCF728FB62B6B748007801287DD0B64EEC
:1045B00000243078052803D1B4480078002804D1BD
:1045C000FDF7F6FE307801280DD0B14F387801287C
:1045D00002D105F01DFB3C70AE4F3878012802D1A6
:1045E00004F0F6F83C70AC48007801285DD0AB4888
:1045F0000078002859D1AA480078022806D12878E6
:10460000000703D10321A74807F0DFFCA64908886B
:10461000002801D0401E0880A4490888002801D045
:10462000401E08803078012601286CD1A04800780F
:10463000012801D0022842D19E4D9F4F2888192180
:10464000401C28803878401CC0B238704843FF3086
:104650006946F53008809949884204D9FF20F53031
:10466000694608803C706846008805F0D9FC94488B
:10467000407E012823D12888C11FFF39FA391ED175
:104680008B482C800178012923D0067004F0A0F813
:104690000121052006F07EF8FDF71EFBFF21F53114
:1046A000012005F08BFC022000E0E8E008F01EFD90
:1046B00004217C4807F096FC824806703C708249D1
:1046C000087800281FD0401E0006000E087015D084
:1046D00019E00221017002F08FFC0021084606F06B
:1046E000F9F90021012006F055F806F0F7FA00214B
:1046F000052006F04FF804F06BF8E0E7002003F027
:10470000DDF8644806707148007801280DD17049C1
:104710000888002809D0401E0004000C088004D13D
:1047200001F034F9012003F081F86A480078032889
:1047300043D169480078002803D06749401E0870BB
:104740009BE066480078002806D1654F654D3878B3
:10475000002802D0012831D08FE001A805F0ACFB81
:10476000012871D16049019A08680A60101A00D5C1
:104770004042642803DA2878401C287000E02C703E
:1047800005F082FC2878022812D95748006805F005
:104790005FFC5649FF2008705549087055482C7039
:1047A0000470554804703E70032003F03FF801E0A8
:1047B00005F05CFC48491520087045E0694601A8F1
:1047C00005F044FB07003FD005F058FC022F02D053
:1047D000012F0FD020E00198FCF724FFFF281BD009
:1047E000424908704249022008703D49087041481A
:1047F000067026E068460088FCF7FAFEFF280BD01A
:104800003A490A78904203D1394A1278012A0CD0E9
:104810002C70374A1670087031480078022810D280
:104820003148006805F014FCC4E72A78521CD2B263
:104830002A70012AEDD92A4B02221A702D4A1670CD
:10484000E7E7032002F0F2FF22480078042814D1A1
:104850002A480078012810D12948007801280CD175
:1048600028480178002908D0491E0906090E017060
:1048700003D1FCF715FC03F0ABFFFEF753F9FEBDC7
:10488000E40300207E030020D8030020DA03002088
:104890006F03002070030020660300208C030020BB
:1048A000B303002000100640B6030020B803002028
:1048B000830300202204002020040020DC050000E7
:1048C000B40A00206B0300206D0300208D0300203C
:1048D0008E030020D90300205D0400206104002025
:1048E0005E0400205F040020540400205B040020CC
:1048F0005A0400205C0400206404002066040020A8
:104900006504002068040020F8B5DB480078002822
:1049100002D1F02006F0FAFED84801260178D84FDF
:10492000002905D0491E0906090E017000D13E700C
:10493000D4480078012805D0D3490878002802D04F
:10494000401E0870F8BDD1480078012810D0D04929
:10495000D04A0888D04D401C80B2088011880024BD
:10496000491C1180297801297ED0C00713D027E087
:10497000CA49CB4805F002FAC848FF210088F53142
:10498000884205D8C748C649C08809888842D9D214
:10499000FBF70EFFF8BDC448C4490078400040183A
:1049A000BE4905F0EBF9C048BF490078401CC0B2D1
:1049B0000870042801D3084604700120FCF7DEFBD0
:1049C0002878052808D005F0BAFEB9490880FCF718
:1049D00053FD2878012847D0B6480078002803D036
:1049E000B548007801287BD1B4480078002877D1F9
:1049F000B3480078002873D1B2480178002908D064
:104A0000491E0906090E017003D10621AE4807F0C0
:104A1000C3FAAE490878042862D0032803D1AC4910
:104A2000097802295CD3AB49097E012911D1AA4B2F
:104A3000197800290DD0A94A1278002A09D1491EF7
:104A40000906090E197002D1A24920398E74A449B1
:104A50000E70A4490A78002A42D0521E1206120E85
:104A60000A703DD1A04900E03AE00978002905D15B
:104A70009A490978012901D0022802D1022000F0C8
:104A8000ABFF9248007803280CD102F0C9FE022146
:104A9000002001F063FA0221012001F05FFA0120F9
:104AA000FDF70AF8914804708D4806708E4804702E
:104AB0008A4804708E4804707F4804708D480470E2
:104AC0008D480078012808D12878042805D00228CC
:104AD00003D0012801D0012000E0002002F0A6FE52
:104AE0008648007801281BD085480178002917D016
:104AF000491E0906090E017012D1002003F0BCFC0A
:104B0000287804280CD001280AD0022808D07A4836
:104B10000078012804D100F039FF012002F086FE60
:104B20007848007801283BD177490888401C0880E4
:104B3000C0077649C00F087003F06EFC2878012882
:104B40002ED07148724902881E2A21D30480087829
:104B5000002825D1042000F03FFF2421002000F090
:104B6000E3FF6C480078002803D0002001F0A8F88B
:104B700016E0012001F0A4F844480670052002F078
:104B80009DFE06F045FE06214F4807F005FA07E0B6
:104B90001D2A05D10878002802D1042000F01CFF4E
:104BA0004A480078032817D15B480078002813D1C1
:104BB0004748017802290FD2584B1A78521CD2B2BA
:104BC0001A70202A07D9012903D1554909780029EB
:104BD00015D0032101703E70524A107800282AD067
:104BE0002878012827D0042825D04F4801780029AB
:104BF00009D0491E0906090E017002D003E0022106
:104C0000E8E714703E7049480078012813D1484DF8
:104C1000287800280FD0401EC0B228700321FBF76F
:104C200083FA002902D1032000F0D6FE287800285C
:104C300001D13E4804703F4A107800280AD03E480F
:104C40000178002906D0491E0906090E017001D11C
:104C500014703E7039480178002900D19AE6491E47
:104C60000906090E0170F9D1354810210470354844
:104C7000FBF79BFAF8BD000074030020A903002095
:104C800070030020660300208C0300207E030020B8
:104C9000E2030020F0030020D803002004040020D9
:104CA00002040020EE0C00207F03002008040020F6
:104CB000FE03002090030020280400208003002031
:104CC000810300206A03002000080640D903002069
:104CD0005E040020B40A00206C030020BA03002008
:104CE0006F03002093030020E603002067030020E9
:104CF000BB030020290400208D0300202D04002088
:104D0000730300207B030020000400207C030020AC
:104D10007D0300207A030020610400206404002049
:104D200058040020BC030020C2030020C10300205F
:104D3000C4030020BD030020C30300204204002060
:104D40002F0400200C0D0020F8B5C14D0024287858
:104D5000012802D100F000FF2C70BE4D28780128F8
:104D600011D1BD48017801290DD10470BB49012042
:104D7000087002F09DFF042000F02EFE042003F0D6
:104D80007BFB03F025FDB648007801287ED028780B
:104D9000012801D000F0A6F9B2480078012875D0AA
:104DA000B1480078002871D1B048B14F0078B14EB9
:104DB000032827D03078002824D0AF480078012875
:104DC00020D1AE48007801281CD03878002819D1AD
:104DD000AB480078C838072805D22878032816D0B1
:104DE00003F062FA08E0A7480078002802D128788A
:104DF00003280CD002F0DAFFA3480470A348047023
:104E00009D480470A2480078012804D00EE00420D8
:104E100001F0DEFDF0E798480078012806D13878E7
:104E2000002803D103F03CF8934804709948807E31
:104E3000002814D198480078012810D197480078AC
:104E400001280CD13878002809D103F053FA00204A
:104E5000FCF732FE9148924904700720088083488D
:104E60000078032836D08B48807E002832D08D48C9
:104E7000007801282ED1387800282BD130780028EE
:104E800028D183480078002824D100E0D4E07B4872
:104E9000007801281ED08448007800281AD1834861
:104EA0000078002816D12878052813D003F03AF8A6
:104EB0007F480078012805D16C480078002801D18E
:104EC00002F0B4FC7A4804706F4804706F480470B4
:104ED000744804707748007800280ED0764800782F
:104EE00001280AD12878022807D0042805D00128F3
:104EF00003D003F087F9704804706648C07C01282D
:104F000001D103F003FA6D480078012832D16148DD
:104F1000017F002928D03178002925D15C49097802
:104F2000002921D16049097800291DD15349097808
:104F3000012919D04D490978002915D1604909780E
:104F4000002911D15949097800290DD10178CF29BB
:104F500002D24078CF2803D34F480078012803D0ED
:104F6000052002F0ABFC03E07D205649C00008801C
:104F7000524804705448007801285DD128780528EB
:104F80005AD13878002857D1504F3878012807D0A7
:104F9000404DA87E00282AD0307800281FD026E077
:104FA00002F090FE3B4DE87C012803D1698D288DED
:104FB00005F0E8FAA87E00280AD03078002807D14A
:104FC00033480078002803D102F0ACFF4048047059
:104FD00001F098FC3F490A2008803C702AE02C48E8
:104FE0000078002803D13A4E3078002825D005F00B
:104FF000A6FB39490880FCF73FFA287F0A2148437D
:10500000344908800120387005F0FAFA05F098FD5F
:105010000021084605F0BEFB304D2888782809D9C4
:10502000FCF762FB2E49002808700ED000210D48C5
:1050300001702C8024480470F8BD02F073FF012039
:10504000307024490A200880F4E70121EFE70000CE
:105050004A030020D803002040030020FD03002065
:105060007E030020660300208C030020D90300206B
:10507000B103002080030020380300202D0400200D
:1050800010040020FC030020120400201104002062
:1050900081030020940A0020C90300205803002047
:1050A000560300203C0300208D030020BC03002099
:1050B0001F040020900300204E0300203003002036
:1050C0002C0400202E03002034030020DA030020EB
:1050D0008203002032030020FE030020F0030020A2
:1050E0007403002010B50B48007800280CD0052868
:1050F00006D003280BD0042801D100F0E5F810BD3C
:10510000054800780028FAD100F008F810BD00F03A
:1051100057F810BDD8030020DA030020F8B51C486A
:105120000078012833D11B481B4D04781C481B4EC6
:10513000002101220378002C02D0002B20D023E094
:10514000184C27786424002F04D0002B02D12C8027
:1051500031700270144B9B7E002B07D00378002B1C
:1051600012D1124B1C80124B19700CE011480078C0
:10517000012809D1104A1E2010801048017003E058
:105180001E232B8031700270032002F097FBF8BDC4
:10519000B0030020800300203603002038030020E5
:1051A0001104002081030020940A00203A0300200B
:1051B0003C030020C90300205603002058030020B0
:1051C00070B5304900200978002906D02E4D2F49AE
:1051D0002A5609780A4307D007E0002002F06EFB48
:1051E0002B490120087070BD01202A4E002432682E
:1051F000927FCF2A05D3284A1388002B01D00120A3
:105200001480264A1278012A04D1012902D1244AA5
:1052100001201470234A1278012A07D1224A1278F9
:10522000012A03D102290CD003290AD00028DAD0A0
:1052300002F0BAFE1D49002028560978084303D021
:105240000FE01B480470F3E730682030C07B012872
:1052500003D018480078012803D1174800780028A7
:1052600003D0042001F0B4FB70BD1448017801297B
:10527000FAD1FF21124AF531118012490C70022136
:10528000017070BDB003002080030020FC030020EB
:1052900070030020D003002054030020AD03002041
:1052A00075030020AB030020AC0300208103002025
:1052B00076030020E0030020BC030020110400203E
:1052C0003A0300203C030020F8B567480025007829
:1052D00001272C46012830D0644801786448002911
:1052E000037807D063480078C838072802D2002B1B
:1052F00023D0F8BD604801786048012900788446D1
:105300005F48027804D0022907D0032905D00AE0BB
:105310006646012E07D15B4E02E0012A03D15A4EA8
:105320003678002E06D0002B08D0584B1B78002B67
:1053300006D046E051490C70047073E0012540E04E
:10534000534B1B689B7FCF2B3BD2524E01293378A6
:1053500006D0002916D002291BD0032919D030E02D
:105360004D4800780128454803D06146002902D005
:105370000CE004700AE0077042496420087005E000
:1053800002251DE04548007C00281AD0012BF7D0EB
:1053900017E043490978012903D1424909780129D5
:1053A00002D0002A02D005E0047003E007703649FD
:1053B00064200870012B04D105F0B1F90128DFD079
:1053C0003470324E3078284311D1374800780128A4
:1053D0000DD13248007E012809D1274800780228E3
:1053E00001D0032803D105F09AF9012817D02E48DF
:1053F000012D047016D0022D00D07AE72748007ED8
:105400000128FAD10421294806F0C6FD2848294977
:10541000047014200880144804703770F8BD2248C6
:105420000470EBE70120FCF747FB19480068807F18
:10543000CF2803D3FF2020492D3008801F48077054
:105440000A4800780028E9D01448807F012804D059
:105450000228E3D102F05EF9F8BDFF201849693057
:10546000088018480470F8BD440300208003002021
:10547000B003002010040020FC030020750300206E
:105480007603002045030020460300207703002018
:10549000D0030020AE030020AD030020940A0020BA
:1054A000AB030020AC030020520300200010064094
:1054B0006B030020420300205403002070030020EF
:1054C000360300203803002070B50125012805D0DF
:1054D000022813D0002002F0A9F970BD1C49332026
:1054E00008701C481C4900780860022002F09EF9F0
:1054F0001A49392008701A48057070BD19480024EF
:1055000084760477C474C476203004764477847734
:10551000C4772030154E0470134B0522CD2130681E
:1055200001F07EFD306801462031CD72CC71FBF771
:10553000BBFE0F49306808600120FCF7BDFA04F09B
:10554000EBFF05F06BF80B4804700420C3E7000084
:10555000C5030020DB030020500400204C04002081
:1055600068030020940A002004A67102D0030020E2
:10557000D403002066040020F8B5364C01202070CA
:105580000A2208213448FAF709FE344F344E002528
:10559000344800780128FBD105F08EFD397881422E
:1055A00046D13188491C89B23180022942D1FF2875
:1055B00038D02D490928087022D8FCF7A9FD2B48BE
:1055C000017806291AD3057069462348FCF74AFC7E
:1055D00027486421C06848430099884203D10120CC
:1055E00000F0FAF9F8BD0A2208211B48FAF7D6FDA7
:1055F000022000F0F1F90120207016E00120F8E708
:105600000D2812D119490878002807D0401EC0B2D1
:105610000870114A0A21115401202070012000F065
:10562000DBF902E01048FF2101701248057001E02B
:105630003870358006F0C8FA012803D172B6FBF73E
:10564000D9FA62B620780128A2D104F033FA257085
:105650009EE7000070030020E70300209103002074
:105660002A0400202C03002092030020E6030020DF
:10567000940A00202C040020084A00211170084BD5
:105680000122012807D01A700648018006480270DE
:1056900006480170704703201870F5E7E603002004
:1056A0008303002022040020A0030020990300208F
:1056B000F8B511480078012812D0022810D00F4800
:1056C0000024007801250E4E0E4F012809D0FCF76A
:1056D00055FB0120FCF7F0F900F058F934703D70EB
:1056E000F8BDFCF7C7F90849347050200880074816
:1056F00005703C70F8BD0000D80300208D03002029
:10570000E603002099030020B60300209803002040
:1057100010B50B490B480A78002A07D0012A0BD094
:1057200000220A70032106F037FC10BD01220A7026
:10573000032106F057FC10BD0220087010BD0000C8
:10574000B30300200010064070B52148214C0078BA
:1057500002280AD0FCF712FB1F480068807FCF2880
:105760002FD32178012929D02BE01C48FF21027872
:105770000020F5310125002A05D0194A1180194A67
:105780001070194A1570194A927E002A06D12278A3
:10579000012A03D1164A1180164908700120FCF72E
:1057A0008BF91548154C0078012803D0144800786F
:1057B000207070BD00F0EAF8257070BD1149CF3837
:1057C00008700120FCF778F9022001F001F970BDA2
:1057D000D8030020C9030020D0030020800300204C
:1057E000360300203803002012040020940A002011
:1057F00056030020580300208D0300209903002049
:10580000D90300206E04002070B505462B481026F1
:1058100000782B4C012820D02A48007803281BD080
:10582000FCF7ACFA28480068807FCF2814D200200B
:1058300001F0FCFF25480078002802D001F06AFF43
:105840001CE00121084601F001FE0F21002000F0BC
:105850006BF9012000F034FA70BD1D48017804296D
:10586000FAD00229F8D00129F6D0012001F0DEFF9C
:1058700018480078002803D001F0A0FF267070BD02
:1058800000211548154A164E012D0ED001701170D9
:10589000368E0025304604F01BFD2A460121304695
:1058A00001F030FE0F20207070BD012303701170D5
:1058B000FCF7C6F8B68E0125ECE700008D0300204A
:1058C00097030020D9030020D0030020800300208C
:1058D000D803002090030020250400202604002087
:1058E000940A00200A4801682031C879401CC0B2DF
:1058F000022800D90020C871064901200870064915
:1059000016200870054806490078087070470000A6
:10591000CC0300209D03002097030020D903002022
:10592000990300200948C17C00290CD00021C174D2
:105930000749012008700749074A08701E211170A5
:105940000649087070470121F1E70000940A002021
:105950009E03002098030020970300206F0300207F
:1059600010B5074C607F002808D00621054806F0D6
:1059700039FB607F04494000401C087010BD0000E6
:10598000940A0020000806406A03002010B50B4866
:10599000012404700A49002008700A4908800A4856
:1059A0002146008E04F002FC0421084806F01AFB90
:1059B000074804700748047010BD00008D030020E4
:1059C000900300208E030020940A0020001006405F
:1059D0006B0300206F030020F8B50446042805D0AF
:1059E000032C03D04848807D00286ED047480078BB
:1059F00004286AD0464D2878042866D0022864D04E
:105A0000712004F0ADFF00900421424806F0C4FA72
:105A10002878414E052804D13078012801D105F0BD
:105A20005DFA3E4F3878012801D104F025FC14209E
:105A300007F05CFB012C3CD0022C3ED0042C3CD067
:105A4000FF200121B93004F065FA022007F04EFB77
:105A50000421304806F0C6FA3C2007F047FB012C31
:105A60002FD0022C32D0042C30D004F087FAFF2043
:105A7000F53007F03BFB04F085FA142007F036FB05
:105A8000244C0421204606F087FA2549502008803E
:105A9000052007F02BFB04F027FA052007F026FB72
:105AA0007120009905F02CFA1E480078012818D0C2
:105AB0001BE001217D20C000C5E70121FF20F5305A
:105AC000C1E704F05BFA3C20D3E71CE004F056FA8F
:105AD0003C2007F00BFB04F055FA142007F006FBFE
